:400000000010002011000000C50B0000C50B000008B500F0DBFD000010B572B680220021D200364802F019F88023DA000021344802F013F8334CFF2001062160324A334B20
:40004000334999201A600860324AD82332491804C0241460314B0860314A324801241460314918603148022431220C60992302602F4930481A04304B0A6002601A78062115
:4000800014431C701C782D4A0C431C7010688023DC0204432A492B4B1460087819782A4B141C1A782F2A05D9284A58789978033B9342F6D1264B18602648274B0160274994
:4000C00005200A781A6000F06FFE254935200860244B2549202210201A600860802223481306234980220360D0020B602060214C21492360214B196010BDC04600300F4041
:4001000000400F4000000140FFEE00000C00014010000140000004400800044008030440000304408E6D0000000404400804044000500F4030500F4000700F4000010B4032
:40014000CCF1FF0FCDF1FF0FC9F1FF0FBDF1FF0F1CFF0B4020FF0B4028FF0B40FDF1FF0F2CFF0B40080202400C02024008010B4004010B4000000240A0010080400002408B
:4001800010B5064C2378002B07D10548002802D0044800E000BF0121217010BD5001002000000000FC21000008B5084B002B03D00748084900E000BF07480168002903D049
:4001C000064A002A00D0904708BDC04600000000FC21000054010020C80000200000000038B5041D200284B2651CADB2281C102100F0E8F8281C00F0FEF80028FAD10234BB
:40020000A0B2FF2100F0DEF838BD0000F8B51F1C4B1E041C0E1C151C0020042B2ED8201C0434FFF7DDFF200284B2391C3143201C00F0C8F8661D221D002D06D0290A90B2E3
:4002400000F0C0F8B0B2E9B20AE00D4D90B2298801318FB2390A2F8000F0B4F82978B0B20134A4B200F0AEF8201C012100F0AAF8201C00F0C0F80028FAD10120F8BDC046DA
:400280006C01002010B5041D200284B2E11C88B200F0B1F8002313280BD10134A4B2201C022100F08FF8201C00F0A5F80028FAD10123181C10BD0000074B10B50402E01812
:4002C00084B2201C082100F07DF8201C00F093F80028FAD110BDC04601040000F7B5141C051C019100F066F8844203D9281C00F061F8041C2E1D300286B2F31C99B20091B0
:40030000281C00F0E5F9071C009800F074F8172801D01C2802D1A742F2D300E00024281C0199221C00F03EFA721C97B2381C202100F048F8381C00F05EF80028FAD1B01C82
:4003400087B2381C00F057F81021084209D1009800F051F8071EF2D1281CFFF741FF3C1C02E0381C00F02EF8201CFEBD38B5051C141E0ED000F060FA074B2802C1188DB292
:40038000281C402100F01EF8281C00F034F80028FAD1201C38BDC0460104000008B500F033FD00F029FD0028FBD000F01FFD40B208BD0000024B4000191888897047C046CE
:4003C0006E01002038B5041C00200D1C00F066FD10204042FFF7E2FF210A48B2FFF7DEFF60B2FFF7DBFF68B2FFF7D8FF012000F055FD012038BD10B5041C002000F04EFDC2
:400400000F20FFF7CBFF200A40B2FFF7C7FF60B2FFF7C4FF0020FFF7C1FF041C012000F03DFDE0B210BDF8B51718041C161C0D1CBFB2BC4218D0002000F030FD10204042ED
:40044000FFF7ACFF210A48B2FFF7A8FF60B2FFF7A5FF0022A856FFF7A1FF01340120A4B200F01CFD0135E4E7301CF8BDF8B51718041C161C0D1CBFB2BC4217D0002000F043
:400480000DFD0F20FFF78AFF200A40B2FFF786FF60B2FFF783FF0020FFF780FF013428700120A4B200F0FAFC0135E5E7301CF8BDF0B585B0029003911B200299FFF782FF54
:4004C00003991A20FFF77EFF444B8022C021CC01D0019C849885002300931D1C1C1C3F4E0020321C0C32371D9852D8533C4829B281421BDC029F03211F4139401C3680274D
:4005000002290BD003290ED0012903D0F9009952344A06E03F019F52334A02E07F019F52324AF25202E0B9019952F0526E460021715E814226DC0398032718413840274A6C
:40054000022811D0032816D0012806D08026111DF00058521432234E13E08021171D0E01DE531432204E0CE08027101D7901195214321E4E05E08027101DB901184E1952E4
:4005800014329E52154A171C0C37DE5B101D7519195A009EADB289198EB20096002C15D0161C2C36F1180239FF18023F01913988019F8C4624323988C018D7186144023891
:4005C000023F9953398806887018985201340233A4B2082B00D082E705B0F0BD6E010020FF1F0000FF030000FF070000FF0F000008B5011C80200002FFF7E4FE08BD08B5E6
:400600009620400000F0BAFB00F0E2FB8020FFF7EFFF08BD10B5041C01780120FFF7D2FE61780220FFF7CEFEA1780320FFF7CAFEE1780420FFF7C6FE10BD10B5041C0178AB
:400640000520FFF7BFFE61780620FFF7BBFEA1780720FFF7B7FEE1780820FFF7B3FE10BD10B5041C01780920FFF7ACFE61780A20FFF7A8FEA1780B20FFF7A4FEE1780C20ED
:40068000FFF7A0FE21790D20FFF79CFE61790E20FFF798FE10BD10B5041C01780F20FFF791FE61781020FFF78DFEA1781120FFF789FEE1781220FFF785FE10BD08B5034BAF
:4006C0000002C11888B2FFF796FE08BD03040000F8B5071D380281B20E1C20362131B6B28FB20024301CFFF786FE0502381CFFF782FEADB22A1895B2002D09D0301CFFF7EB
:400700007AFE0402381CFFF776FEA4B223189CB2AC42E7D1201CF8BDF8B5071D380281B20E1C26362731B6B28FB20024301CFFF762FE0502381CFFF75EFEADB22A1895B2E7
:40074000002D09D0301CFFF756FE0402381CFFF752FEA4B223189CB2AC42E7D1201CF8BDF8B50F4C40002418A78B0E1CA18D3A40A7891D1C8818D31880B2BB420ADDBA1A61
:4007800097B2311C3A1CFFF74EFEF119EE1BA08DB2B201E0311C2A1CFFF745FEF8BDC0466E010020F7B5041D071C200284B2251C2435ADB2281C01910092FFF71CFE25345E
:4007C000A4B2061C201CFFF716FE3102421896B2321C381C0199009BFFF7C2FF009B281CF718BEB2310AFFF7EDFDF1B2201CFFF7E9FDF7BDF8B50F4C40002418A78A161C09
:40080000A28C3940A7881D1C5018CB1880B2BB420ADD791A8FB23A1C311CFFF727FEF119EE1BA08CB2B201E0311C2A1CFFF71EFEF8BDC0466E010020F7B5041D071C200231
:4008400084B2251C2835ADB2281C01910092FFF7D2FD2934A4B2061C201CFFF7CCFD3102421896B2381C019A311C009BFFF7C2FF009B281CF718BEB2310AFFF7A3FDF1B213
:40088000201CFFF79FFDF7BD07B56B46D97107330079191C0122FFF721FD07BD054B017108331A0A037042701A0C1B0E8270C3707047C0467023000008B50079FFF72CFFBB
:4008C00008BD13B5041CFFF7F7FF002808D020796C460734211C0122FFF748FD207801E00120404216BD000010B5041C0079FFF777FC2079FFF7E0FC2279024B50000021C4
:40090000C15210BDAA01002008B50079FFF7D6FE08BD0079FF38431E9841704708B5074907488A1D00F068F800F0C6F9054800F019FA054800F07EF808BDC046CC000020EA
:40094000A801002080230000A201002008B50248172100F05FF808BDA20100201FB5094C01A8211C00F0BEF801A8FFF7D2FF002806D001A8FFF7A5FFC1B2201C00F0FEF83F
:400980001FBDC046A201002008B5FFF7C7FF012000F084FAFFF7E2FFFCE770B5151C1C1C0E1CFFF72CFE5520011CFFF781FD301CFFF756FE281CFFF76EFE201CFFF72AFE5C
:4009C0000498FFF73AFE70BDF0B587B005AC071C0E1C151C201C07490422039301F034FB0094381C311C2A1C039BFFF7D6FF07B0F0BDC0469523000013B5147801AB1C70FB
:400A000054785C7094789C700124DC70FFF7DCFF13BD0000064B017108331A0A03704270090A1A0C1B0E8270C37041717047C046A02300007FB5051C0024E6B2311C01A8ED
:400A4000FFF72CFF01A8FFF75FFF031E12D16A79297912020A43301C0121FFF7D7FB301CFFF710FC68792B79044E05021D436400A55302E00134042CDFD17FBDAA01002052
:400A80007FB50024051C261CE1B201A8FFF706FF134862006B792979825A1B020B439A4210D101A8FFF730FF14280AD001A8FFF72BFF1C2806D101A8FFF7FEFE00280AD098
:400AC00000E001260134042CDED1002E07D1281CFFF7B0FF03E001A8FFF706FFF2E77FBDAA010020F0B5041C85B0081C0F1CFFF7C7FF002601ADF1B2281CFFF7CFFE1D489D
:400B000072007B793979825A1B020B439A4204D1281CFFF7F9FE172807D00136042EE9D1201CFF21FFF7BAFE20E0281CFFF7C4FE0028F2D0104F3E0A390C3B0E2770A1706E
:400B4000E3706670287920716A682E7A170A310639430B0A080C0A0E6171A371E0712272AD682F023E0C310A6672A172201C05B0F0BDC046AA010020782300007FB5051CAB
:400B80000E1CFFF77DFF0024E1B201A8FFF786FE0B4862006B792979825A1B020B439A4204D101A8FFF7B0FE172803D00134042CEAD17FBD01A8311CFFF766FEF6E7C0469E
:400BC000AA01002000B5FEE700B5FEE7F8B52348411E234B421A1401103B1B194A1C37D05E791D799F7934023A042C43DD7914435A7A2E0634431F7A16029D7ADA7A3E4383
:400C00002F0415065A783E431F782E4315023D439F783A04DF7815433A061543221C171BB74202D080CD80C2F9E75C7B1E7B270237439E7BDB7B340427431E06151C3E4334
:400C4000571BB74202D0002410C2F9E70139C0E701F0D4F9FFF798FEFEE7C04601000000F023000008B500239A00032B02D80948815800E00849094801338150302BF3D1E5
:400C8000FFF7CAF9064B002280201A600121C205116008BD00000000C50B000000000020C0000020034B802219681006084318607047C0460000064008B5054B1A78002AE9
:400CC00003D10120187000F005F8FFF7EBFF08BDB8010020124A134B134810B51A6000230360124A124C1348012121600260124807240460114C1248236001601149124CDC
:400D00000A601248124A134913602360124A0360124C13480B6013602360036010BDC0460B0000020000064040000640070000804800064000030640040306401003064055
:400D40004400064000020640880E0640C80E064004020640480F0640080F0640C80F0640880F064010B5041C0134631E1878002802D000F09FF8F7E710BD000010B5041C2D
:400D80008022074B1002844205D9186800F0A0F804496418F4E75868604300F099F810BDD80000200080FFFF08B5034B197A484300F08EF808BDC046D8000020034B802264
:400DC00019681006084318607047C0460000074008B5054B1A78002A03D10120187000F021F8FFF7EBFF08BDC0010020014B18687047C04640030740024B0F211868084068
:400E00007047C0460803074000B5044B0F211A6811400829F9D0024B186000BD08020740400207400E4A0F4B0F4810491A60104B104A0860104913600720104A0860104840
:400E40001360002303600F490F4A10480B6013600F4903600F4A10480B6013600360704707000001000007400100008020000740070100800003074004030740000207408E
:400E800004020740880E0740C80E0740480F0740080F0740C80F0740880F0740044BEF22196800010A40102108401043186070470003044000B5044B0F211A68114008294D
:400EC000F9D0024B186000BD08020640400206400230800804D0C0460138FDD1C046C0467047EFF3108072B6704780F310887047016800B54A0003D44B005908401800BD5E
:400F0000802213061943F9E7F0B55F46444656464D46F0B4804683B09346002922D0013901918A4600265246B318DC0FE0184410E5004544281CFFF7DBFF01998146A14204
:400F400019D0671CF8004044FFF7D2FFD94504D9B44207D0013CA246E5E70138584502D23E1CE0E70025281C03B03CBC90469946A246AB46F0BD5845EAD8F4E700B50128D7
:400F800009D0022805D0002801D0002000BD0348FCE70348FAE70348F8E7C046ED160000D5160000E1160000016810B5041CCA0705D48A070FD5483000F0AEFD21684A07BA
:400FC0000FD50A0714D5CA0604D48C229300E01800F0AEFD10BD483000F09AFD21684A07EFD4201CD03000F09BFD21680A07EAD4D8235800201800F097FD2168E3E7C046AA
:4010000030B5244B83B0041C8D1E002B3CD001A9281C00E000BF011C002920D02A1C0199FFF772FF051E1DD0FFF762FF6A68A064012A10D0281D002A20DBFFF759FF0023FA
:40104000E06423650568002D0FDBFFF751FF2061002003B030BD002222610520F9E721610920F6E720610920F3E72801000FFFF785FF2061002805D10920EAE70121E06452
:401080002165DFE70020E4E7034804490A1AD3100193C3E7000000000022000070230000036800B5002B00D01B18181C00BDC046092070477047C046F0B54F464646C0B44B
:4010C000304CC368051C8069A544171C04314022814603A8984602AC00F0B6FF00210291281C216CFFF78CFF7B1E9F41061C0937002E13D0A26B102139434F4662640120C1
:40110000009401972A1C2B1CC047002831D1301C1D4DAD440CBC90469946F0BD266C90239A006E61211C92A800F08EFF291C92AA2E69381CB047061CA098494660642A1CFC
:40114000019100940120391C2B1CC047002810D19022201C92A9920000F076FF082E06D1281C216CFFF74CFF0927061CC0E7072E01D00926CBE70020216CFFF79BFF03A875
:4011800000F0B0FC74FBFFFF8C04000038B5041C0D1C201C296CFFF733FF00280AD12B6C01206361211C2A1C236998470828F0D0072801D000F01AFF0020296CFFF77AFFDD
:4011C000281D00F08FFCC046406C704770B5144CCB6BA5440B64041C0E1C01A80431402200F032FF012041420091201C1099FFF707FF00280BD12569211C6A46A847051E61
:40120000082DF2D06846FFF7CFFE062D04D0092090229200954470BD201C311CFFF7B6FFC0FDFFFF08B58261DA6BC1601A64191C0022FFF741FF08BD38B54369041CC06826
:401240000D1C0B64002805D00122201CFFF734FF00F0CCFE0220211C2A1C23699847072803D0082808D000F0C1FE0020296CFFF721FF281D00F036FC201C291CFFF786FFA0
:4012800008B5C368002B05D0CA6B0A640022FFF713FF08BDFFF79AFFFBE7C0467047C04608B58368011C002B01D00120984708BD00B5002904D10221002B07D0081C00BD41
:4012C00004238B42894149420131F7E70F2AF5D8920080184168019B19600021EEE7C04600B585B003AB0A1C009300210023FFF7DFFF039805B000BD00B5002904D102215F
:40130000002B07D0081C00BD04238B42894149420131F7E70F2AF5D8019B92001968801841600021EEE7C04600B585B00B1C039203AA009200211A1C0023FFF7DDFF05B0A1
:4013400000BDC046F0B55F464D4644465646F0B40D1C1F1CEB6C032193460C1C04CB89B00440019405920693002F5DD114026A460594577711770199022965D02E6D002447
:401380000294F10744D40822024003925C461868804600283BD0022F41D01E885A88B04691461E1D0123AA6C484698430F219B461318201C9A46FFF793FF00218C4682455C
:4013C00007D842465B469A4352449042804141428C4601224B4613404146580011400843012860D0002808D1019B002B03D06146002900D042E1331DC9E7022826D0092008
:4014000009B03CBC90469946A246AB46F0BDA346022F69DDFFF74CFE0028F0D16BE058681E1C81460836BDE7022FA4DC160C6946140402224E770A77FF210E400199B60087
:4014400005949B19022999D1AB6B97E733685800410801988A46002853D1614600291BD00398002800D183E05246002A14D1B046A44660460D21FFF733FF049A444628621E
:401480006A62AC620620BBE7351C4C464646B8465F46C245EBD03368002B67DB514601318800331873E70198002844D16146002917D0306872688246911CA0D02B1C583302
:4014C0000493531C00D1BDE0301DFFF7E9FD011C5046C20F04AB281C00E000BF002800D0E6E0331C083352E7584605A900F0C6FB002800D083E7029D002D00D0AEE0082007
:401500007EE72A6A201C0D219046FFF7E9FE8045C1D1AB6A9E42BED1514600200422331DA962E8622A636B633168002900DAB8E001200290B2E72A6A201C0D219146FFF792
:40154000CFFE8145CDD1AB6A9E42CAD1271C301CFFF7CEFC0F21021C381CFFF7E5FE381C00212A1CFFF7E0FE072049E7043695E75346002B00D17AE7582148198346504615
:401580000138331D024000210092181C5A46994688460492FFF784FD0022011C04AB281C00E000BF002800D073E70423012199448846514500D15AE70098002814D05A461C
:4015C00048460492FFF76CFD0022011C04AB281C00E000BF002800D05BE70423022199448846514500D142E7381C4A464746A146B046141C2E1C5D4683467B1C201C00933E
:401600000495FFF74DFD0022011C04AB301C00E000BF002800D037E70434201C0495FFF73FFD0022011C04AB301C009F00E000BF002800D028E7013704345745DDD1351C19
:40164000CC4616E7201C0D21FFF74AFEB0462862049E6E624346AB620620D1E60F215846FFF73EFE0E21021C5846FFF75DFE58460F21174AFFF758FE0720C1E6301CFFF787
:4016800037FC0436071CAE63281C00E000BF002800D1B4E6201C0F213A1CFFF745FE0720AEE6271C54460134B146A00048444FE7271C0D21041C381CFFF712FEB046286287
:4016C000022CC5D104992A1C2C32E9626A62C1E70000000008B50223FFF734FE08BDC04608B50123FFF72EFE08BDC04608B50023FFF728FE08BDC04670B5184CD36BA5440C
:401700001364061C0D1C17A8111D402200F09CFC01204142169168462699FFF771FC002813D116A80C216A46FFF7FEFD16A8291CB047002809D1049C0820694616AAA04743
:40174000041E052C02D00928E5D1092416A8FFF72BFC201CA6229200954470BD68FDFFFFF0B556464D4644465F46F0B4061CE7B0141C1D1C0220042925D8B94B8900585804
:401780008746002D29D1102A27D833681021194200D06CE1684600F0CDF9B76BE20701D501CF0090A10701D508CF0193600701D502CF0291220701D510CF03946846B7634C
:4017C00000F0B6F9002067B03CBC90469946A246AB46F0BD032D00D1FDE00220F3E70220002DF0D1B36BD00701D501CB7060A20701D502CBB160610701D504CBF2602007AC
:4018000001D520CB3561E20601D580CB7761A10601D501CBB061600601D502CBF161220601D504CB3262E10501D520CB7562A00501D580CBB762620501D501CBF06221057C
:4018400001D502CB3163E00401D504CB7263A20401D520CBB563610401D580CBF763200401D501CB30640020A204ACD4B363AAE71304170C1C0C012D00D1E6E0052DACD157
:40188000E0192028A9D80F2F00D8EBE0A046002C29D00F2F11D83068012202420DD0011C91430A1C3160052D00D112E1032398433060301C483000F02DF94146002904D0EA
:4018C000336804221A4200D0F4E0012D00D1F8E00F2F00D8E7E04046002804D004A800F021F91024E41BB36B9A469946002C2CDD620091461A1CF80002CA44AC2318022076
:4019000002C341428B46CB445C46611C19D00120002808D00324604202CA8346CB4402C3594601310DD0101C10C8191C10C152685A60021D02204442A3440B1D5946013151
:40194000F1D14B469A009146D1444046002832D04400A246391E102900D2102110394A46CB0010CA04A8C318022110C34C42A346D3445846441C1BD00121002908D0032067
:40198000414210CA8B46D34410C35C4601340FD0101C02C88C466446191C10C152685A60021D02200B1D41428B445C46611CEFD153469A009144012D61D04D46B5630F2F83
:4019C00065D94646002E02D004A800F0A9F80020F9E60120F7E6170C1204140CE519102D00D9FAE6316808230B4254D124A800F09DF8FF00B06B24ADEB19670084467C1E55
:401A0000002F1CD001216246081C20CA2040BC1E20C3611C11D0002804D010CA10C3FC1E601C0AD0101C20C8191C20C15268023C5A60021D0B1D601CF4D1B8006044B0634C
:401A400024A800F071F80020BDE6E119102900D9C3E60F2F00D9C0E6002290461BE7C046B0230000102822D91038804611E78C228B4395003360701900F05CF88AE64F468A
:401A8000043744A8B76300F043F800209BE644A800F042F895E7D820994342003160B01800F044F8A2E744A800F038F813E700239846F0E69343301C3360D03000F032F8B7
:401AC00003E744A800F026F84146002900D008E709E702200243301C3260483000F01EF8EBE6C046011C343138C9043B9C461D60A646011C20313CC990469946A246AB46FB
:401B0000011C0831FCC941680068E54600BDC0467047C0467047C0467047C0467047C0467047C0467047C0467047C0467047C0467047C0467047C04601B401A801B585B0E0
:401B4000FFB408A841464A4653465C4665463EC001A83EC80F98009000230CB401A9FFF735FB109B12B0184701B401A801B585B0FFB408A841464A4653465C4665463EC0FB
:401B800001A83EC80F98009000230CB401A9FFF753FB109B12B0184701B401A801B585B0FFB408A841464A4653465C4665463EC001A83EC80F98009000230CB401A9FFF792
:401BC0005FFB109B12B0184701B401A801B585B0FFB408A841464A4653465C4665463EC001A83EC80F98009000230CB401ABFFF719FB109B12B0184701B401A801B585B084
:401C0000FFB408A841464A4653465C4665463EC001A83EC80F98009000230CB401AAFFF76BFD109B12B0184700B5027A031C002A04D1417AB020002907D100BD013A027261
:401C40000268100E12021A60F7E701395868597204C8032158601972F3E7C04600B585B003AB009300210C220023FFF721FB039805B000BD08B5FFF7F1FF08BDF0B5564633
:401C80004D4644465F46F0B47F2287B0061C0D1C0F23002107200391904699468246281CFFF7C2FF041EB02C00D1C5E0071C41468F43FAB2002A2AD0031C48468343DFB251
:401CC000802F00D17FE0902F40D0A02F4CD0B02F5FD0C02F00D190E0221C51468A43D3B2D02B0BD10C408020013402032243301C01210523FFF734FD0028D0D00927381C7B
:401D000007B03CBC90469946A246AB46F0BD8300FF221340043305AF00219B460097301C0D220023FFF7C4FA059962060AD558460B1A05930097301C00210D220023FFF760
:401D4000DBFAACE70C1C5C440594F3E74A4622400D2AD3D00F2AD1D005AF0097301C00210023FFF7A5FAE5E7FF210F015246A243381C1041021C3A40230702D58024E3016B
:401D80001A43301C00210023FFF7EAFC0028B5D185E7B12C74D0B22C00D186E0B32C00D1B0E0FC222240B42A5BD057463C40802101340A032243301C01210123FFF7D0FC8C
:401DC00000289BD16BE7281CFFF72EFF2402802220431702B84291D0010504010A0C301C00210023FFF7BCFC002800D086E73C4200D154E70120039051E7C62C00D18DE08D
:401E0000C72C00D19EE0271C52469743F9B2C02900D1ACE0C82C00D1AFE0C92C00D06DE7281CFFF701FF4C464A460240A043C3B20132180302435AE7039D0027002D00D0BF
:401E40005DE705AC0094301C00210E220023FFF72FFA0094301C00210F220023FFF74CFA4DE703231C408020C20201342243301C02210223FFF774FC002800D03EE70EE7A9
:401E8000281CFFF7D1FE021E00D137E74B46041C9C43E3B2002B00D030E7301C0021FFF75FFC002800D029E7F9E605AC00210D2200230094301CFFF7FBF9281CFFF7B4FE54
:401EC0004246031C9343D9B2022700290FD04346059A1840B84010180590281CFFF7A4FE4346011C9943CAB20737002AEFD1059981239A008B1841460840B8401818059067
:401F0000009418E7281CFFF78FFE4C464A460240A043C7B2013239030A434CE7281CFFF783FE4A46494602408843C3B2013218030243301C03210323FFF712FC002800D017
:401F4000DCE6ACE6281CFFF76FFE021E00D1D5E6041C4F46BC43E3B2002B00D0CEE6301C0421FFF7FDFB002800D0C7E697E60440A020013402032243DBE7281CFFF754FE50
:401F80004946071C8F43FAB210320840120301300243ACE610B5C26C84B0546801AB2002019003201872141CD2790834081C191C02945A72FFF762FE04B010BD08B5FFF75F
:401FC00059FE806C08BDC04608B5FFF753FEC36CD8791A1D01308100501808BD08B500F005F8C04608B500F001F8C04608B5062000F068F80120FEF7E7FD000070B50E4B32
:402000000E4D0024E81A85101E1CAC4204D0A100725890470134F8E700F0D6F90849094A0E1C541AA5100024AC4204D0A300F05880470134F8E770BDD4230000D4230000C1
:40204000D4230000E023000010B50023934203D0CC5CC4540133F9E710BD00B58218031C934202D019700133FAE700BD38B5041C0D1E1F2D04D916250122056050421FE090
:40208000436C002B04D08A0098180368002B08D1201C00F033F82A1C011C201C00F01CF80EE0012B0BD0591C03D116212160012006E000240460281C9847201C00E00020EB
:4020C00038BD000008B5034B011C1868FFF7CEFF08BDC0464C01002038B5074C0023051C081C111C236000F015F8431C03D12168002900D0296038BDC801002008B500F02A
:4021000001F808BD024B5822012040421A607047C8010020024B5822012040421A607047C801002007B10181B0B000840000000008B10181B0B000840000000008B1018161
:40214000B0B000840000000008B10181B0B000840000000008B10181B0B0008400000000A2B20181AB3080010000000008B10181B0B000840000000008B10181B0B00084CD
:402180000000000008B10181B0B000840000000080080181B0B0ABF00000000008B10181B0B000840000000008B10181B0B000840000000008B10181B0B00084000000009E
:4021C0003F260181B0ABF0800000000008B10181B0B000840000000080060181B0B0ABF00000000008B10181B0B000840000000008B10181B0B000840000000000000000CD
:4022000088E6FF7F20FFFF7F94E6FF7F01000000A8E6FF7F1CFFFF7FAAE6FF7FA803B180C8E6FF7FB0B0A880E0E6FF7F10FFFF7FE2E6FF7F01000000E4E6FF7F0CFFFF7FF0
:402240000CE7FF7F0100000014E7FF7FA80FB18038E7FF7F00FFFF7F42E7FF7FB0B0AA8068E7FF7FB0AB068090E7FF7FA803B180A4E7FF7F01000000BCE7FF7FAA0FB180AC
:4022800064E8FF7FB0AB0480F4E8FF7FAA0FB18034E9FF7F0100000010EDFF7FB0B0A88060EDFF7FB0A90280F8EDFF7F0100000008EEFF7FACFEFF7FD4EEFF7FA908B180CA
:4022C00008EFFF7F0100000004EFFF7FAA0FB28054EFFF7F98FEFF7F60EFFF7FA908B180A0EFFF7F94FEFF7FB4EFFF7F01000000B0EFFF7F90FEFF7FB8EFFF7F01000000FA
:4023000044F0FF7F8CFEFF7FCCF3FF7F90FEFF7FD0F3FF7F94FEFF7FD4F3FF7F98FEFF7FD8F3FF7FAA25B28038F4FF7F94FEFF7FB4F7FF7F0100000024F9FF7F008404801F
:4023400034F9FF7F88FEFF7F34F9FF7F8CFEFF7F44FCFF7FB0A8038064FCFF7F88FEFF7F68FCFF7F8CFEFF7F74FCFF7F010000000000000000000000890800000000000016
:40238000435938434B49542D303432205553422D5541525400FFFFFF000000000000000000000000000000007D0B000000000000DE17000070180000D2190000D417000010
:4023C0008217000043000000F8B5C046F8BC08BC9E467047A90100004D090000650C0000F8B5C046F8BC08BC9E4670478101000000240000C800002088000000800000006E
:402400000000000090A2DA0EA08AA9FE161F00000000C05D80BB000030000000006CDC020000000000000000000000000000000000000000000000000000000000000000AA
:40244000C423000000000000000000000000000000000000000000000000000000000000000000000000000000000000000000000000000000000000000000000000000075
:4024800000000000E8000020000000000000000000000000000000000000000000000000000000000000000000000000000000000000000000000000000000000000000014
:4024C00000000000000000000000000000000000000000000000000000000000000000000000000000000000000000000000000000000000000000000000000000000000DC
:40250000000000000000000000000000000000000000000000000000000000000000000000000000000000000000000000000000000000000000000000000000000000009B
:40254000000000000000000000000000000000000000000000000000000000000000000000000000000000000000000000000000000000000000000000000000000000005B
:40258000000000000000000000000000000000000000000000000000000000000000000000000000000000000000000000000000000000000000000000000000000000001B
:0200000490303A
:02000000964622
:0200000490402A
:200000000000000000000000000000000000000000000000000000000000000000000000E0
:0200000490501A
:0C000000000204C81193110104D5A7D917
:0200000490600A
:0100000001FE
:00000001FF